{
  "contracts/vesting.sol": {
    "TokenVesting": {
      "abi": [
        {
          "inputs": [
            {
              "internalType": "address",
              "name": "tokenAddress",
              "type": "address"
            }
          ],
          "stateMutability": "nonpayable",
          "type": "constructor"
        },
        {
          "inputs": [],
          "name": "EnforcedPause",
          "type": "error"
        },
        {
          "inputs": [],
          "name": "ExpectedPause",
          "type": "error"
        },
        {
          "inputs": [
            {
              "internalType": "address",
              "name": "owner",
              "type": "address"
            }
          ],
          "name": "OwnableInvalidOwner",
          "type": "error"
        },
        {
          "inputs": [
            {
              "internalType": "address",
              "name": "account",
              "type": "address"
            }
          ],
          "name": "OwnableUnauthorizedAccount",
          "type": "error"
        },
        {
          "inputs": [],
          "name": "ReentrancyGuardReentrantCall",
          "type": "error"
        },
        {
          "anonymous": false,
          "inputs": [
            {
              "indexed": true,
              "internalType": "address",
              "name": "beneficiary",
              "type": "address"
            }
          ],
          "name": "BeneficiaryRemovedFromWhitelist",
          "type": "event"
        },
        {
          "anonymous": false,
          "inputs": [
            {
              "indexed": true,
              "internalType": "address",
              "name": "beneficiary",
              "type": "address"
            }
          ],
          "name": "BeneficiaryWhitelisted",
          "type": "event"
        },
        {
          "anonymous": false,
          "inputs": [
            {
              "indexed": true,
              "internalType": "address",
              "name": "previousOwner",
              "type": "address"
            },
            {
              "indexed": true,
              "internalType": "address",
              "name": "newOwner",
              "type": "address"
            }
          ],
          "name": "OwnershipTransferred",
          "type": "event"
        },
        {
          "anonymous": false,
          "inputs": [
            {
              "indexed": false,
              "internalType": "address",
              "name": "account",
              "type": "address"
            }
          ],
          "name": "Paused",
          "type": "event"
        },
        {
          "anonymous": false,
          "inputs": [
            {
              "indexed": true,
              "internalType": "address",
              "name": "beneficiary",
              "type": "address"
            },
            {
              "indexed": false,
              "internalType": "uint256",
              "name": "amount",
              "type": "uint256"
            }
          ],
          "name": "TokensClaimed",
          "type": "event"
        },
        {
          "anonymous": false,
          "inputs": [
            {
              "indexed": false,
              "internalType": "address",
              "name": "account",
              "type": "address"
            }
          ],
          "name": "Unpaused",
          "type": "event"
        },
        {
          "anonymous": false,
          "inputs": [
            {
              "indexed": true,
              "internalType": "address",
              "name": "beneficiary",
              "type": "address"
            }
          ],
          "name": "VestingRevoked",
          "type": "event"
        },
        {
          "anonymous": false,
          "inputs": [
            {
              "indexed": true,
              "internalType": "address",
              "name": "beneficiary",
              "type": "address"
            },
            {
              "indexed": false,
              "internalType": "uint256",
              "name": "amount",
              "type": "uint256"
            }
          ],
          "name": "VestingScheduleCreated",
          "type": "event"
        },
        {
          "inputs": [
            {
              "internalType": "address",
              "name": "beneficiary",
              "type": "address"
            }
          ],
          "name": "addToWhitelist",
          "outputs": [],
          "stateMutability": "nonpayable",
          "type": "function"
        },
        {
          "inputs": [
            {
              "internalType": "address",
              "name": "beneficiary",
              "type": "address"
            }
          ],
          "name": "calculateVestedAmount",
          "outputs": [
            {
              "internalType": "uint256",
              "name": "",
              "type": "uint256"
            }
          ],
          "stateMutability": "view",
          "type": "function"
        },
        {
          "inputs": [],
          "name": "claimVestedTokens",
          "outputs": [],
          "stateMutability": "nonpayable",
          "type": "function"
        },
        {
          "inputs": [
            {
              "internalType": "address",
              "name": "beneficiary",
              "type": "address"
            },
            {
              "internalType": "uint256",
              "name": "amount",
              "type": "uint256"
            },
            {
              "internalType": "uint256",
              "name": "cliffDuration",
              "type": "uint256"
            },
            {
              "internalType": "uint256",
              "name": "vestingDuration",
              "type": "uint256"
            },
            {
              "internalType": "uint256",
              "name": "startTime",
              "type": "uint256"
            }
          ],
          "name": "createVestingSchedule",
          "outputs": [],
          "stateMutability": "nonpayable",
          "type": "function"
        },
        {
          "inputs": [],
          "name": "owner",
          "outputs": [
            {
              "internalType": "address",
              "name": "",
              "type": "address"
            }
          ],
          "stateMutability": "view",
          "type": "function"
        },
        {
          "inputs": [],
          "name": "pause",
          "outputs": [],
          "stateMutability": "nonpayable",
          "type": "function"
        },
        {
          "inputs": [],
          "name": "paused",
          "outputs": [
            {
              "internalType": "bool",
              "name": "",
              "type": "bool"
            }
          ],
          "stateMutability": "view",
          "type": "function"
        },
        {
          "inputs": [
            {
              "internalType": "address",
              "name": "beneficiary",
              "type": "address"
            }
          ],
          "name": "removeFromWhitelist",
          "outputs": [],
          "stateMutability": "nonpayable",
          "type": "function"
        },
        {
          "inputs": [],
          "name": "renounceOwnership",
          "outputs": [],
          "stateMutability": "nonpayable",
          "type": "function"
        },
        {
          "inputs": [
            {
              "internalType": "address",
              "name": "beneficiary",
              "type": "address"
            }
          ],
          "name": "revokeVesting",
          "outputs": [],
          "stateMutability": "nonpayable",
          "type": "function"
        },
        {
          "inputs": [],
          "name": "token",
          "outputs": [
            {
              "internalType": "contract IERC20",
              "name": "",
              "type": "address"
            }
          ],
          "stateMutability": "view",
          "type": "function"
        },
        {
          "inputs": [
            {
              "internalType": "address",
              "name": "newOwner",
              "type": "address"
            }
          ],
          "name": "transferOwnership",
          "outputs": [],
          "stateMutability": "nonpayable",
          "type": "function"
        },
        {
          "inputs": [],
          "name": "unpause",
          "outputs": [],
          "stateMutability": "nonpayable",
          "type": "function"
        },
        {
          "inputs": [
            {
              "internalType": "address",
              "name": "",
              "type": "address"
            }
          ],
          "name": "vestingSchedules",
          "outputs": [
            {
              "internalType": "uint256",
              "name": "totalAmount",
              "type": "uint256"
            },
            {
              "internalType": "uint256",
              "name": "startTime",
              "type": "uint256"
            },
            {
              "internalType": "uint256",
              "name": "cliffDuration",
              "type": "uint256"
            },
            {
              "internalType": "uint256",
              "name": "vestingDuration",
              "type": "uint256"
            },
            {
              "internalType": "uint256",
              "name": "amountClaimed",
              "type": "uint256"
            },
            {
              "internalType": "bool",
              "name": "revoked",
              "type": "bool"
            }
          ],
          "stateMutability": "view",
          "type": "function"
        },
        {
          "inputs": [
            {
              "internalType": "address",
              "name": "",
              "type": "address"
            }
          ],
          "name": "whitelist",
          "outputs": [
            {
              "internalType": "bool",
              "name": "",
              "type": "bool"
            }
          ],
          "stateMutability": "view",
          "type": "function"
        }
      ],
      "evm": {
        "bytecode": {
          "linkReferences": {},
          "object": "60a060405234801561001057600080fd5b506040516111cf3803806111cf83398101604081905261002f91610128565b338061005657604051631e4fbdf760e01b8152600060048201526024015b60405180910390fd5b61005f816100d8565b506000805460ff60a01b19169055600180556001600160a01b0381166100c75760405162461bcd60e51b815260206004820152601560248201527f496e76616c696420746f6b656e20616464726573730000000000000000000000604482015260640161004d565b6001600160a01b0316608052610158565b600080546001600160a01b038381166001600160a01b0319831681178455604051919092169283917f8be0079c531659141344cd1fd0a4f28419497f9722a3daafe3b4186f6b6457e09190a35050565b60006020828403121561013a57600080fd5b81516001600160a01b038116811461015157600080fd5b9392505050565b608051611047610188600039600081816101eb015281816105c2015281816107bc0152610b2801526110476000f3fe608060405234801561001057600080fd5b50600436106100f55760003560e01c80638da5cb5b11610097578063f2fde38b11610066578063f2fde38b146101d3578063fc0c546a146101e6578063fdb20ccb1461020d578063ffa06b2a1461028457600080fd5b80638da5cb5b146101705780639b19251a14610195578063e43252d7146101b8578063e74f3fbb146101cb57600080fd5b80635c975abb116100d35780635c975abb1461012a578063715018a61461014d5780638456cb59146101555780638ab1d6811461015d57600080fd5b80631bf0b08b146100fa5780633b0da2601461010f5780633f4ba83a14610122575b600080fd5b61010d610108366004610ee7565b6102a5565b005b61010d61011d366004610f29565b6106d9565b61010d6108c2565b600054600160a01b900460ff165b60405190151581526020015b60405180910390f35b61010d6108d4565b61010d6108e6565b61010d61016b366004610f29565b6108f6565b6000546001600160a01b03165b6040516001600160a01b039091168152602001610144565b6101386101a3366004610f29565b60036020526000908152604090205460ff1681565b61010d6101c6366004610f29565b610947565b61010d6109e3565b61010d6101e1366004610f29565b610bfa565b61017d7f000000000000000000000000000000000000000000000000000000000000000081565b61025561021b366004610f29565b6002602081905260009182526040909120805460018201549282015460038301546004840154600590940154929493919290919060ff1686565b6040805196875260208701959095529385019290925260608401526080830152151560a082015260c001610144565b610297610292366004610f29565b610c38565b604051908152602001610144565b6102ad610d37565b6001600160a01b038516600090815260036020526040902054859060ff1661031c5760405162461bcd60e51b815260206004820152601b60248201527f42656e6566696369617279206e6f742077686974656c6973746564000000000060448201526064015b60405180910390fd5b610324610d64565b6001600160a01b0386166103705760405162461bcd60e51b8152602060048201526013602482015272496e76616c69642062656e656669636961727960681b6044820152606401610313565b600085116103b55760405162461bcd60e51b81526020600482015260126024820152710416d6f756e74206d757374206265203e20360741b6044820152606401610313565b600083116104055760405162461bcd60e51b815260206004820152601c60248201527f56657374696e67206475726174696f6e206d757374206265203e2030000000006044820152606401610313565b8383101561045f5760405162461bcd60e51b815260206004820152602160248201527f56657374696e67206475726174696f6e206d757374206265203e3d20636c69666044820152603360f91b6064820152608401610313565b6001600160a01b038616600090815260026020526040902054156104c55760405162461bcd60e51b815260206004820152601760248201527f5363686564756c6520616c7265616479206578697374730000000000000000006044820152606401610313565b428210156105155760405162461bcd60e51b815260206004820152601c60248201527f53746172742074696d65206d75737420626520696e20667574757265000000006044820152606401610313565b6040518060c00160405280868152602001838152602001858152602001848152602001600081526020016000151581525060026000886001600160a01b03166001600160a01b03168152602001908152602001600020600082015181600001556020820151816001015560408201518160020155606082015181600301556080820151816004015560a08201518160050160006101000a81548160ff0219169083151502179055509050507f00000000000000000000000000000000000000000000000000000000000000006001600160a01b03166323b872dd3330886040518463ffffffff1660e01b815260040161062f939291906001600160a01b039384168152919092166020820152604081019190915260600190565b6020604051808303816000875af115801561064e573d6000803e3d6000fd5b505050506040513d601f19601f820116820180604052508101906106729190610f4b565b61068e5760405162461bcd60e51b815260040161031390610f6d565b856001600160a01b03167f969705509595726740fe60cc30769bbd53c883efff4d8e70108a82817e0392a9866040516106c991815260200190565b60405180910390a2505050505050565b6106e1610d37565b6001600160a01b0381166000908152600260205260409020805461073d5760405162461bcd60e51b81526020600482015260136024820152724e6f2076657374696e67207363686564756c6560681b6044820152606401610313565b600581015460ff16156107845760405162461bcd60e51b815260206004820152600f60248201526e105b1c9958591e481c995d9bdad959608a1b6044820152606401610313565b600061078f83610c38565b905060008183600001546107a39190610fac565b60058401805460ff1916600117905590508015610888577f00000000000000000000000000000000000000000000000000000000000000006001600160a01b031663a9059cbb6107fb6000546001600160a01b031690565b6040516001600160e01b031960e084901b1681526001600160a01b039091166004820152602481018490526044016020604051808303816000875af1158015610848573d6000803e3d6000fd5b505050506040513d601f19601f8201168201806040525081019061086c9190610f4b565b6108885760405162461bcd60e51b815260040161031390610f6d565b6040516001600160a01b038516907f68d870ac0aff3819234e8a1fc8f357b40d75212f2dc8594b97690fa205b3bab290600090a250505050565b6108ca610d37565b6108d2610d8f565b565b6108dc610d37565b6108d26000610de4565b6108ee610d37565b6108d2610e34565b6108fe610d37565b6001600160a01b038116600081815260036020526040808220805460ff19169055517f1ecef1b5180dc14b16608c5c5ec1fa28998e2f94e460b91c1b50bdfb643cc1389190a250565b61094f610d37565b6001600160a01b0381166109975760405162461bcd60e51b815260206004820152600f60248201526e496e76616c6964206164647265737360881b6044820152606401610313565b6001600160a01b038116600081815260036020526040808220805460ff19166001179055517f07e751107375f503d05dfa76b5038ce1c5b7d46e9e45768f913ac333780394399190a250565b6109eb610e77565b6109f3610d64565b3360009081526002602052604090208054610a465760405162461bcd60e51b81526020600482015260136024820152724e6f2076657374696e67207363686564756c6560681b6044820152606401610313565b600581015460ff1615610a8d5760405162461bcd60e51b815260206004820152600f60248201526e15995cdd1a5b99c81c995d9bdad959608a1b6044820152606401610313565b6000610a9833610c38565b90506000826004015482610aac9190610fac565b905060008111610af35760405162461bcd60e51b81526020600482015260126024820152714e6f20746f6b656e7320746f20636c61696d60701b6044820152606401610313565b80836004016000828254610b079190610fc5565b909155505060405163a9059cbb60e01b8152336004820152602481018290527f00000000000000000000000000000000000000000000000000000000000000006001600160a01b03169063a9059cbb906044016020604051808303816000875af1158015610b79573d6000803e3d6000fd5b505050506040513d601f19601f82011682018060405250810190610b9d9190610f4b565b610bb95760405162461bcd60e51b815260040161031390610f6d565b60405181815233907f896e034966eaaf1adc54acc0f257056febbd300c9e47182cf761982cf1f5e4309060200160405180910390a25050506108d260018055565b610c02610d37565b6001600160a01b038116610c2c57604051631e4fbdf760e01b815260006004820152602401610313565b610c3581610de4565b50565b6001600160a01b0381166000908152600260208181526040808420815160c0810183528154808252600183015494820194909452938101549184019190915260038101546060840152600481015460808401526005015460ff16151560a08301521580610ca657508060a001515b15610cb45750600092915050565b80604001518160200151610cc89190610fc5565b421015610cd85750600092915050565b80606001518160200151610cec9190610fc5565b4210610cf9575192915050565b6000816020015142610d0b9190610fac565b905060008260600151828460000151610d249190610fd8565b610d2e9190610fef565b95945050505050565b6000546001600160a01b031633146108d25760405163118cdaa760e01b8152336004820152602401610313565b600054600160a01b900460ff16156108d25760405163d93c066560e01b815260040160405180910390fd5b610d97610ea1565b6000805460ff60a01b191690557f5db9ee0a495bf2e6ff9c91a7834c1ba4fdd244a5e8aa4e537bd38aeae4b073aa335b6040516001600160a01b03909116815260200160405180910390a1565b600080546001600160a01b038381166001600160a01b0319831681178455604051919092169283917f8be0079c531659141344cd1fd0a4f28419497f9722a3daafe3b4186f6b6457e09190a35050565b610e3c610d64565b6000805460ff60a01b1916600160a01b1790557f62e78cea01bee320cd4e420270b5ea74000d11b0c9f74754ebdbfc544b05a258610dc73390565b600260015403610e9a57604051633ee5aeb560e01b815260040160405180910390fd5b6002600155565b600054600160a01b900460ff166108d257604051638dfc202b60e01b815260040160405180910390fd5b80356001600160a01b0381168114610ee257600080fd5b919050565b600080600080600060a08688031215610eff57600080fd5b610f0886610ecb565b97602087013597506040870135966060810135965060800135945092505050565b600060208284031215610f3b57600080fd5b610f4482610ecb565b9392505050565b600060208284031215610f5d57600080fd5b81518015158114610f4457600080fd5b6020808252600f908201526e151c985b9cd9995c8819985a5b1959608a1b604082015260600190565b634e487b7160e01b600052601160045260246000fd5b81810381811115610fbf57610fbf610f96565b92915050565b80820180821115610fbf57610fbf610f96565b8082028115828204841417610fbf57610fbf610f96565b60008261100c57634e487b7160e01b600052601260045260246000fd5b50049056fea2646970667358221220129cdb8abfd9f74a9cfbc811114271c90d948bdd7f871a0a0a159dcad12dea2e64736f6c63430008140033",
          "opcodes": "PUSH1 0xA0 PUSH1 0x40 MSTORE CALLVALUE DUP1 ISZERO PUSH2 0x10 JUMPI PUSH1 0x0 DUP1 REVERT JUMPDEST POP PUSH1 0x40 MLOAD PUSH2 0x11CF CODESIZE SUB DUP1 PUSH2 0x11CF DUP4 CODECOPY DUP2 ADD PUSH1 0x40 DUP2 SWAP1 MSTORE PUSH2 0x2F SWAP2 PUSH2 0x128 JUMP JUMPDEST CALLER DUP1 PUSH2 0x56 JUMPI PUSH1 0x40 MLOAD PUSH4 0x1E4FBDF7 PUSH1 0xE0 SHL DUP2 MSTORE PUSH1 0x0 PUSH1 0x4 DUP3 ADD MSTORE PUSH1 0x24 ADD JUMPDEST PUSH1 0x40 MLOAD DUP1 SWAP2 SUB SWAP1 REVERT JUMPDEST PUSH2 0x5F DUP2 PUSH2 0xD8 JUMP JUMPDEST POP PUSH1 0x0 DUP1 SLOAD PUSH1 0xFF PUSH1 0xA0 SHL NOT AND SWAP1 SSTORE PUSH1 0x1 DUP1 SSTORE PUSH1 0x1 PUSH1 0x1 PUSH1 0xA0 SHL SUB DUP2 AND PUSH2 0xC7 JUMPI PUSH1 0x40 MLOAD PUSH3 0x461BCD PUSH1 0xE5 SHL DUP2 MSTORE PUSH1 0x20 PUSH1 0x4 DUP3 ADD MSTORE PUSH1 0x15 PUSH1 0x24 DUP3 ADD MSTORE PUSH32 0x496E76616C696420746F6B656E20616464726573730000000000000000000000 PUSH1 0x44 DUP3 ADD MSTORE PUSH1 0x64 ADD PUSH2 0x4D JUMP JUMPDEST PUSH1 0x1 PUSH1 0x1 PUSH1 0xA0 SHL SUB AND PUSH1 0x80 MSTORE PUSH2 0x158 JUMP JUMPDEST PUSH1 0x0 DUP1 SLOAD PUSH1 0x1 PUSH1 0x1 PUSH1 0xA0 SHL SUB DUP4 DUP2 AND PUSH1 0x1 PUSH1 0x1 PUSH1 0xA0 SHL SUB NOT DUP4 AND DUP2 OR DUP5 SSTORE PUSH1 0x40 MLOAD SWAP2 SWAP1 SWAP3 AND SWAP3 DUP4 SWAP2 PUSH32 0x8BE0079C531659141344CD1FD0A4F28419497F9722A3DAAFE3B4186F6B6457E0 SWAP2 SWAP1 LOG3 POP POP JUMP JUMPDEST PUSH1 0x0 PUSH1 0x20 DUP3 DUP5 SUB SLT ISZERO PUSH2 0x13A JUMPI PUSH1 0x0 DUP1 REVERT JUMPDEST DUP2 MLOAD PUSH1 0x1 PUSH1 0x1 PUSH1 0xA0 SHL SUB DUP2 AND DUP2 EQ PUSH2 0x151 JUMPI PUSH1 0x0 DUP1 REVERT JUMPDEST SWAP4 SWAP3 POP POP POP JUMP JUMPDEST PUSH1 0x80 MLOAD PUSH2 0x1047 PUSH2 0x188 PUSH1 0x0 CODECOPY PUSH1 0x0 DUP2 DUP2 PUSH2 0x1EB ADD MSTORE DUP2 DUP2 PUSH2 0x5C2 ADD MSTORE DUP2 DUP2 PUSH2 0x7BC ADD MSTORE PUSH2 0xB28 ADD MSTORE PUSH2 0x1047 PUSH1 0x0 RETURN INVALID PUSH1 0x80 PUSH1 0x40 MSTORE CALLVALUE DUP1 ISZERO PUSH2 0x10 JUMPI PUSH1 0x0 DUP1 REVERT JUMPDEST POP PUSH1 0x4 CALLDATASIZE LT PUSH2 0xF5 JUMPI PUSH1 0x0 CALLDATALOAD PUSH1 0xE0 SHR DUP1 PUSH4 0x8DA5CB5B GT PUSH2 0x97 JUMPI DUP1 PUSH4 0xF2FDE38B GT PUSH2 0x66 JUMPI DUP1 PUSH4 0xF2FDE38B EQ PUSH2 0x1D3 JUMPI DUP1 PUSH4 0xFC0C546A EQ PUSH2 0x1E6 JUMPI DUP1 PUSH4 0xFDB20CCB EQ PUSH2 0x20D JUMPI DUP1 PUSH4 0xFFA06B2A EQ PUSH2 0x284 JUMPI PUSH1 0x0 DUP1 REVERT JUMPDEST DUP1 PUSH4 0x8DA5CB5B EQ PUSH2 0x170 JUMPI DUP1 PUSH4 0x9B19251A EQ PUSH2 0x195 JUMPI DUP1 PUSH4 0xE43252D7 EQ PUSH2 0x1B8 JUMPI DUP1 PUSH4 0xE74F3FBB EQ PUSH2 0x1CB JUMPI PUSH1 0x0 DUP1 REVERT JUMPDEST DUP1 PUSH4 0x5C975ABB GT PUSH2 0xD3 JUMPI DUP1 PUSH4 0x5C975ABB EQ PUSH2 0x12A JUMPI DUP1 PUSH4 0x715018A6 EQ PUSH2 0x14D JUMPI DUP1 PUSH4 0x8456CB59 EQ PUSH2 0x155 JUMPI DUP1 PUSH4 0x8AB1D681 EQ PUSH2 0x15D JUMPI PUSH1 0x0 DUP1 REVERT JUMPDEST DUP1 PUSH4 0x1BF0B08B EQ PUSH2 0xFA JUMPI DUP1 PUSH4 0x3B0DA260 EQ PUSH2 0x10F JUMPI DUP1 PUSH4 0x3F4BA83A EQ PUSH2 0x122 JUMPI JUMPDEST PUSH1 0x0 DUP1 REVERT JUMPDEST PUSH2 0x10D PUSH2 0x108 CALLDATASIZE PUSH1 0x4 PUSH2 0xEE7 JUMP JUMPDEST PUSH2 0x2A5 JUMP JUMPDEST STOP JUMPDEST PUSH2 0x10D PUSH2 0x11D CALLDATASIZE PUSH1 0x4 PUSH2 0xF29 JUMP JUMPDEST PUSH2 0x6D9 JUMP JUMPDEST PUSH2 0x10D PUSH2 0x8C2 JUMP JUMPDEST PUSH1 0x0 SLOAD PUSH1 0x1 PUSH1 0xA0 SHL SWAP1 DIV PUSH1 0xFF AND JUMPDEST PUSH1 0x40 MLOAD SWAP1 ISZERO ISZERO DUP2 MSTORE PUSH1 0x20 ADD JUMPDEST PUSH1 0x40 MLOAD DUP1 SWAP2 SUB SWAP1 RETURN JUMPDEST PUSH2 0x10D PUSH2 0x8D4 JUMP JUMPDEST PUSH2 0x10D PUSH2 0x8E6 JUMP JUMPDEST PUSH2 0x10D PUSH2 0x16B CALLDATASIZE PUSH1 0x4 PUSH2 0xF29 JUMP JUMPDEST PUSH2 0x8F6 JUMP JUMPDEST PUSH1 0x0 SLOAD PUSH1 0x1 PUSH1 0x1 PUSH1 0xA0 SHL SUB AND JUMPDEST PUSH1 0x40 MLOAD PUSH1 0x1 PUSH1 0x1 PUSH1 0xA0 SHL SUB SWAP1 SWAP2 AND DUP2 MSTORE PUSH1 0x20 ADD PUSH2 0x144 JUMP JUMPDEST PUSH2 0x138 PUSH2 0x1A3 CALLDATASIZE PUSH1 0x4 PUSH2 0xF29 JUMP JUMPDEST PUSH1 0x3 PUSH1 0x20 MSTORE PUSH1 0x0 SWAP1 DUP2 MSTORE PUSH1 0x40 SWAP1 KECCAK256 SLOAD PUSH1 0xFF AND DUP2 JUMP JUMPDEST PUSH2 0x10D PUSH2 0x1C6 CALLDATASIZE PUSH1 0x4 PUSH2 0xF29 JUMP JUMPDEST PUSH2 0x947 JUMP JUMPDEST PUSH2 0x10D PUSH2 0x9E3 JUMP JUMPDEST PUSH2 0x10D PUSH2 0x1E1 CALLDATASIZE PUSH1 0x4 PUSH2 0xF29 JUMP JUMPDEST PUSH2 0xBFA JUMP JUMPDEST PUSH2 0x17D PUSH32 0x0 DUP2 JUMP JUMPDEST PUSH2 0x255 PUSH2 0x21B CALLDATASIZE PUSH1 0x4 PUSH2 0xF29 JUMP JUMPDEST PUSH1 0x2 PUSH1 0x20 DUP2 SWAP1 MSTORE PUSH1 0x0 SWAP2 DUP3 MSTORE PUSH1 0x40 SWAP1 SWAP2 KECCAK256 DUP1 SLOAD PUSH1 0x1 DUP3 ADD SLOAD SWAP3 DUP3 ADD SLOAD PUSH1 0x3 DUP4 ADD SLOAD PUSH1 0x4 DUP5 ADD SLOAD PUSH1 0x5 SWAP1 SWAP5 ADD SLOAD SWAP3 SWAP5 SWAP4 SWAP2 SWAP3 SWAP1 SWAP2 SWAP1 PUSH1 0xFF AND DUP7 JUMP JUMPDEST PUSH1 0x40 DUP1 MLOAD SWAP7 DUP8 MSTORE PUSH1 0x20 DUP8 ADD SWAP6 SWAP1 SWAP6 MSTORE SWAP4 DUP6 ADD SWAP3 SWAP1 SWAP3 MSTORE PUSH1 0x60 DUP5 ADD MSTORE PUSH1 0x80 DUP4 ADD MSTORE ISZERO ISZERO PUSH1 0xA0 DUP3 ADD MSTORE PUSH1 0xC0 ADD PUSH2 0x144 JUMP JUMPDEST PUSH2 0x297 PUSH2 0x292 CALLDATASIZE PUSH1 0x4 PUSH2 0xF29 JUMP JUMPDEST PUSH2 0xC38 JUMP JUMPDEST PUSH1 0x40 MLOAD SWAP1 DUP2 MSTORE PUSH1 0x20 ADD PUSH2 0x144 JUMP JUMPDEST PUSH2 0x2AD PUSH2 0xD37 JUMP JUMPDEST PUSH1 0x1 PUSH1 0x1 PUSH1 0xA0 SHL SUB DUP6 AND PUSH1 0x0 SWAP1 DUP2 MSTORE PUSH1 0x3 PUSH1 0x20 MSTORE PUSH1 0x40 SWAP1 KECCAK256 SLOAD DUP6 SWAP1 PUSH1 0xFF AND PUSH2 0x31C JUMPI PUSH1 0x40 MLOAD PUSH3 0x461BCD PUSH1 0xE5 SHL DUP2 MSTORE PUSH1 0x20 PUSH1 0x4 DUP3 ADD MSTORE PUSH1 0x1B PUSH1 0x24 DUP3 ADD MSTORE PUSH32 0x42656E6566696369617279206E6F742077686974656C69737465640000000000 PUSH1 0x44 DUP3 ADD MSTORE PUSH1 0x64 ADD JUMPDEST PUSH1 0x40 MLOAD DUP1 SWAP2 SUB SWAP1 REVERT JUMPDEST PUSH2 0x324 PUSH2 0xD64 JUMP JUMPDEST PUSH1 0x1 PUSH1 0x1 PUSH1 0xA0 SHL SUB DUP7 AND PUSH2 0x370 JUMPI PUSH1 0x40 MLOAD PUSH3 0x461BCD PUSH1 0xE5 SHL DUP2 MSTORE PUSH1 0x20 PUSH1 0x4 DUP3 ADD MSTORE PUSH1 0x13 PUSH1 0x24 DUP3 ADD MSTORE PUSH19 0x496E76616C69642062656E6566696369617279 PUSH1 0x68 SHL PUSH1 0x44 DUP3 ADD MSTORE PUSH1 0x64 ADD PUSH2 0x313 JUMP JUMPDEST PUSH1 0x0 DUP6 GT PUSH2 0x3B5 JUMPI PUSH1 0x40 MLOAD PUSH3 0x461BCD PUSH1 0xE5 SHL DUP2 MSTORE PUSH1 0x20 PUSH1 0x4 DUP3 ADD MSTORE PUSH1 0x12 PUSH1 0x24 DUP3 ADD MSTORE PUSH18 0x416D6F756E74206D757374206265203E203 PUSH1 0x74 SHL PUSH1 0x44 DUP3 ADD MSTORE PUSH1 0x64 ADD PUSH2 0x313 JUMP JUMPDEST PUSH1 0x0 DUP4 GT PUSH2 0x405 JUMPI PUSH1 0x40 MLOAD PUSH3 0x461BCD PUSH1 0xE5 SHL DUP2 MSTORE PUSH1 0x20 PUSH1 0x4 DUP3 ADD MSTORE PUSH1 0x1C PUSH1 0x24 DUP3 ADD MSTORE PUSH32 0x56657374696E67206475726174696F6E206D757374206265203E203000000000 PUSH1 0x44 DUP3 ADD MSTORE PUSH1 0x64 ADD PUSH2 0x313 JUMP JUMPDEST DUP4 DUP4 LT ISZERO PUSH2 0x45F JUMPI PUSH1 0x40 MLOAD PUSH3 0x461BCD PUSH1 0xE5 SHL DUP2 MSTORE PUSH1 0x20 PUSH1 0x4 DUP3 ADD MSTORE PUSH1 0x21 PUSH1 0x24 DUP3 ADD MSTORE PUSH32 0x56657374696E67206475726174696F6E206D757374206265203E3D20636C6966 PUSH1 0x44 DUP3 ADD MSTORE PUSH1 0x33 PUSH1 0xF9 SHL PUSH1 0x64 DUP3 ADD MSTORE PUSH1 0x84 ADD PUSH2 0x313 JUMP JUMPDEST PUSH1 0x1 PUSH1 0x1 PUSH1 0xA0 SHL SUB DUP7 AND PUSH1 0x0 SWAP1 DUP2 MSTORE PUSH1 0x2 PUSH1 0x20 MSTORE PUSH1 0x40 SWAP1 KECCAK256 SLOAD ISZERO PUSH2 0x4C5 JUMPI PUSH1 0x40 MLOAD PUSH3 0x461BCD PUSH1 0xE5 SHL DUP2 MSTORE PUSH1 0x20 PUSH1 0x4 DUP3 ADD MSTORE PUSH1 0x17 PUSH1 0x24 DUP3 ADD MSTORE PUSH32 0x5363686564756C6520616C726561647920657869737473000000000000000000 PUSH1 0x44 DUP3 ADD MSTORE PUSH1 0x64 ADD PUSH2 0x313 JUMP JUMPDEST TIMESTAMP DUP3 LT ISZERO PUSH2 0x515 JUMPI PUSH1 0x40 MLOAD PUSH3 0x461BCD PUSH1 0xE5 SHL DUP2 MSTORE PUSH1 0x20 PUSH1 0x4 DUP3 ADD MSTORE PUSH1 0x1C PUSH1 0x24 DUP3 ADD MSTORE PUSH32 0x53746172742074696D65206D75737420626520696E2066757475726500000000 PUSH1 0x44 DUP3 ADD MSTORE PUSH1 0x64 ADD PUSH2 0x313 JUMP JUMPDEST PUSH1 0x40 MLOAD DUP1 PUSH1 0xC0 ADD PUSH1 0x40 MSTORE DUP1 DUP7 DUP2 MSTORE PUSH1 0x20 ADD DUP4 DUP2 MSTORE PUSH1 0x20 ADD DUP6 DUP2 MSTORE PUSH1 0x20 ADD DUP5 DUP2 MSTORE PUSH1 0x20 ADD PUSH1 0x0 DUP2 MSTORE PUSH1 0x20 ADD PUSH1 0x0 ISZERO ISZERO DUP2 MSTORE POP PUSH1 0x2 PUSH1 0x0 DUP9 PUSH1 0x1 PUSH1 0x1 PUSH1 0xA0 SHL SUB AND PUSH1 0x1 PUSH1 0x1 PUSH1 0xA0 SHL SUB AND DUP2 MSTORE PUSH1 0x20 ADD SWAP1 DUP2 MSTORE PUSH1 0x20 ADD PUSH1 0x0 KECCAK256 PUSH1 0x0 DUP3 ADD MLOAD DUP2 PUSH1 0x0 ADD SSTORE PUSH1 0x20 DUP3 ADD MLOAD DUP2 PUSH1 0x1 ADD SSTORE PUSH1 0x40 DUP3 ADD MLOAD DUP2 PUSH1 0x2 ADD SSTORE PUSH1 0x60 DUP3 ADD MLOAD DUP2 PUSH1 0x3 ADD SSTORE PUSH1 0x80 DUP3 ADD MLOAD DUP2 PUSH1 0x4 ADD SSTORE PUSH1 0xA0 DUP3 ADD MLOAD DUP2 PUSH1 0x5 ADD PUSH1 0x0 PUSH2 0x100 EXP DUP2 SLOAD DUP2 PUSH1 0xFF MUL NOT AND SWAP1 DUP4 ISZERO ISZERO MUL OR SWAP1 SSTORE POP SWAP1 POP POP PUSH32 0x0 PUSH1 0x1 PUSH1 0x1 PUSH1 0xA0 SHL SUB AND PUSH4 0x23B872DD CALLER ADDRESS DUP9 PUSH1 0x40 MLOAD DUP5 PUSH4 0xFFFFFFFF AND PUSH1 0xE0 SHL DUP2 MSTORE PUSH1 0x4 ADD PUSH2 0x62F SWAP4 SWAP3 SWAP2 SWAP1 PUSH1 0x1 PUSH1 0x1 PUSH1 0xA0 SHL SUB SWAP4 DUP5 AND DUP2 MSTORE SWAP2 SWAP1 SWAP3 AND PUSH1 0x20 DUP3 ADD MSTORE PUSH1 0x40 DUP2 ADD SWAP2 SWAP1 SWAP2 MSTORE PUSH1 0x60 ADD SWAP1 JUMP JUMPDEST PUSH1 0x20 PUSH1 0x40 MLOAD DUP1 DUP4 SUB DUP2 PUSH1 0x0 DUP8 GAS CALL ISZERO DUP1 ISZERO PUSH2 0x64E JUMPI RETURNDATASIZE PUSH1 0x0 DUP1 RETURNDATACOPY RETURNDATASIZE PUSH1 0x0 REVERT JUMPDEST POP POP POP POP PUSH1 0x40 MLOAD RETURNDATASIZE PUSH1 0x1F NOT PUSH1 0x1F DUP3 ADD AND DUP3 ADD DUP1 PUSH1 0x40 MSTORE POP DUP2 ADD SWAP1 PUSH2 0x672 SWAP2 SWAP1 PUSH2 0xF4B JUMP JUMPDEST PUSH2 0x68E JUMPI PUSH1 0x40 MLOAD PUSH3 0x461BCD PUSH1 0xE5 SHL DUP2 MSTORE PUSH1 0x4 ADD PUSH2 0x313 SWAP1 PUSH2 0xF6D JUMP JUMPDEST DUP6 PUSH1 0x1 PUSH1 0x1 PUSH1 0xA0 SHL SUB AND PUSH32 0x969705509595726740FE60CC30769BBD53C883EFFF4D8E70108A82817E0392A9 DUP7 PUSH1 0x40 MLOAD PUSH2 0x6C9 SWAP2 DUP2 MSTORE PUSH1 0x20 ADD SWAP1 JUMP JUMPDEST PUSH1 0x40 MLOAD DUP1 SWAP2 SUB SWAP1 LOG2 POP POP POP POP POP POP JUMP JUMPDEST PUSH2 0x6E1 PUSH2 0xD37 JUMP JUMPDEST PUSH1 0x1 PUSH1 0x1 PUSH1 0xA0 SHL SUB DUP2 AND PUSH1 0x0 SWAP1 DUP2 MSTORE PUSH1 0x2 PUSH1 0x20 MSTORE PUSH1 0x40 SWAP1 KECCAK256 DUP1 SLOAD PUSH2 0x73D JUMPI PUSH1 0x40 MLOAD PUSH3 0x461BCD PUSH1 0xE5 SHL DUP2 MSTORE PUSH1 0x20 PUSH1 0x4 DUP3 ADD MSTORE PUSH1 0x13 PUSH1 0x24 DUP3 ADD MSTORE PUSH19 0x4E6F2076657374696E67207363686564756C65 PUSH1 0x68 SHL PUSH1 0x44 DUP3 ADD MSTORE PUSH1 0x64 ADD PUSH2 0x313 JUMP JUMPDEST PUSH1 0x5 DUP2 ADD SLOAD PUSH1 0xFF AND ISZERO PUSH2 0x784 JUMPI PUSH1 0x40 MLOAD PUSH3 0x461BCD PUSH1 0xE5 SHL DUP2 MSTORE PUSH1 0x20 PUSH1 0x4 DUP3 ADD MSTORE PUSH1 0xF PUSH1 0x24 DUP3 ADD MSTORE PUSH15 0x105B1C9958591E481C995D9BDAD959 PUSH1 0x8A SHL PUSH1 0x44 DUP3 ADD MSTORE PUSH1 0x64 ADD PUSH2 0x313 JUMP JUMPDEST PUSH1 0x0 PUSH2 0x78F DUP4 PUSH2 0xC38 JUMP JUMPDEST SWAP1 POP PUSH1 0x0 DUP2 DUP4 PUSH1 0x0 ADD SLOAD PUSH2 0x7A3 SWAP2 SWAP1 PUSH2 0xFAC JUMP JUMPDEST PUSH1 0x5 DUP5 ADD DUP1 SLOAD PUSH1 0xFF NOT AND PUSH1 0x1 OR SWAP1 SSTORE SWAP1 POP DUP1 ISZERO PUSH2 0x888 JUMPI PUSH32 0x0 PUSH1 0x1 PUSH1 0x1 PUSH1 0xA0 SHL SUB AND PUSH4 0xA9059CBB PUSH2 0x7FB PUSH1 0x0 SLOAD PUSH1 0x1 PUSH1 0x1 PUSH1 0xA0 SHL SUB AND SWAP1 JUMP JUMPDEST PUSH1 0x40 MLOAD PUSH1 0x1 PUSH1 0x1 PUSH1 0xE0 SHL SUB NOT PUSH1 0xE0 DUP5 SWAP1 SHL AND DUP2 MSTORE PUSH1 0x1 PUSH1 0x1 PUSH1 0xA0 SHL SUB SWAP1 SWAP2 AND PUSH1 0x4 DUP3 ADD MSTORE PUSH1 0x24 DUP2 ADD DUP5 SWAP1 MSTORE PUSH1 0x44 ADD PUSH1 0x20 PUSH1 0x40 MLOAD DUP1 DUP4 SUB DUP2 PUSH1 0x0 DUP8 GAS CALL ISZERO DUP1 ISZERO PUSH2 0x848 JUMPI RETURNDATASIZE PUSH1 0x0 DUP1 RETURNDATACOPY RETURNDATASIZE PUSH1 0x0 REVERT JUMPDEST POP POP POP POP PUSH1 0x40 MLOAD RETURNDATASIZE PUSH1 0x1F NOT PUSH1 0x1F DUP3 ADD AND DUP3 ADD DUP1 PUSH1 0x40 MSTORE POP DUP2 ADD SWAP1 PUSH2 0x86C SWAP2 SWAP1 PUSH2 0xF4B JUMP JUMPDEST PUSH2 0x888 JUMPI PUSH1 0x40 MLOAD PUSH3 0x461BCD PUSH1 0xE5 SHL DUP2 MSTORE PUSH1 0x4 ADD PUSH2 0x313 SWAP1 PUSH2 0xF6D JUMP JUMPDEST PUSH1 0x40 MLOAD PUSH1 0x1 PUSH1 0x1 PUSH1 0xA0 SHL SUB DUP6 AND SWAP1 PUSH32 0x68D870AC0AFF3819234E8A1FC8F357B40D75212F2DC8594B97690FA205B3BAB2 SWAP1 PUSH1 0x0 SWAP1 LOG2 POP POP POP POP JUMP JUMPDEST PUSH2 0x8CA PUSH2 0xD37 JUMP JUMPDEST PUSH2 0x8D2 PUSH2 0xD8F JUMP JUMPDEST JUMP JUMPDEST PUSH2 0x8DC PUSH2 0xD37 JUMP JUMPDEST PUSH2 0x8D2 PUSH1 0x0 PUSH2 0xDE4 JUMP JUMPDEST PUSH2 0x8EE PUSH2 0xD37 JUMP JUMPDEST PUSH2 0x8D2 PUSH2 0xE34 JUMP JUMPDEST PUSH2 0x8FE PUSH2 0xD37 JUMP JUMPDEST PUSH1 0x1 PUSH1 0x1 PUSH1 0xA0 SHL SUB DUP2 AND PUSH1 0x0 DUP2 DUP2 MSTORE PUSH1 0x3 PUSH1 0x20 MSTORE PUSH1 0x40 DUP1 DUP3 KECCAK256 DUP1 SLOAD PUSH1 0xFF NOT AND SWAP1 SSTORE MLOAD PUSH32 0x1ECEF1B5180DC14B16608C5C5EC1FA28998E2F94E460B91C1B50BDFB643CC138 SWAP2 SWAP1 LOG2 POP JUMP JUMPDEST PUSH2 0x94F PUSH2 0xD37 JUMP JUMPDEST PUSH1 0x1 PUSH1 0x1 PUSH1 0xA0 SHL SUB DUP2 AND PUSH2 0x997 JUMPI PUSH1 0x40 MLOAD PUSH3 0x461BCD PUSH1 0xE5 SHL DUP2 MSTORE PUSH1 0x20 PUSH1 0x4 DUP3 ADD MSTORE PUSH1 0xF PUSH1 0x24 DUP3 ADD MSTORE PUSH15 0x496E76616C69642061646472657373 PUSH1 0x88 SHL PUSH1 0x44 DUP3 ADD MSTORE PUSH1 0x64 ADD PUSH2 0x313 JUMP JUMPDEST PUSH1 0x1 PUSH1 0x1 PUSH1 0xA0 SHL SUB DUP2 AND PUSH1 0x0 DUP2 DUP2 MSTORE PUSH1 0x3 PUSH1 0x20 MSTORE PUSH1 0x40 DUP1 DUP3 KECCAK256 DUP1 SLOAD PUSH1 0xFF NOT AND PUSH1 0x1 OR SWAP1 SSTORE MLOAD PUSH32 0x7E751107375F503D05DFA76B5038CE1C5B7D46E9E45768F913AC33378039439 SWAP2 SWAP1 LOG2 POP JUMP JUMPDEST PUSH2 0x9EB PUSH2 0xE77 JUMP JUMPDEST PUSH2 0x9F3 PUSH2 0xD64 JUMP JUMPDEST CALLER PUSH1 0x0 SWAP1 DUP2 MSTORE PUSH1 0x2 PUSH1 0x20 MSTORE PUSH1 0x40 SWAP1 KECCAK256 DUP1 SLOAD PUSH2 0xA46 JUMPI PUSH1 0x40 MLOAD PUSH3 0x461BCD PUSH1 0xE5 SHL DUP2 MSTORE PUSH1 0x20 PUSH1 0x4 DUP3 ADD MSTORE PUSH1 0x13 PUSH1 0x24 DUP3 ADD MSTORE PUSH19 0x4E6F2076657374696E67207363686564756C65 PUSH1 0x68 SHL PUSH1 0x44 DUP3 ADD MSTORE PUSH1 0x64 ADD PUSH2 0x313 JUMP JUMPDEST PUSH1 0x5 DUP2 ADD SLOAD PUSH1 0xFF AND ISZERO PUSH2 0xA8D JUMPI PUSH1 0x40 MLOAD PUSH3 0x461BCD PUSH1 0xE5 SHL DUP2 MSTORE PUSH1 0x20 PUSH1 0x4 DUP3 ADD MSTORE PUSH1 0xF PUSH1 0x24 DUP3 ADD MSTORE PUSH15 0x15995CDD1A5B99C81C995D9BDAD959 PUSH1 0x8A SHL PUSH1 0x44 DUP3 ADD MSTORE PUSH1 0x64 ADD PUSH2 0x313 JUMP JUMPDEST PUSH1 0x0 PUSH2 0xA98 CALLER PUSH2 0xC38 JUMP JUMPDEST SWAP1 POP PUSH1 0x0 DUP3 PUSH1 0x4 ADD SLOAD DUP3 PUSH2 0xAAC SWAP2 SWAP1 PUSH2 0xFAC JUMP JUMPDEST SWAP1 POP PUSH1 0x0 DUP2 GT PUSH2 0xAF3 JUMPI PUSH1 0x40 MLOAD PUSH3 0x461BCD PUSH1 0xE5 SHL DUP2 MSTORE PUSH1 0x20 PUSH1 0x4 DUP3 ADD MSTORE PUSH1 0x12 PUSH1 0x24 DUP3 ADD MSTORE PUSH18 0x4E6F20746F6B656E7320746F20636C61696D PUSH1 0x70 SHL PUSH1 0x44 DUP3 ADD MSTORE PUSH1 0x64 ADD PUSH2 0x313 JUMP JUMPDEST DUP1 DUP4 PUSH1 0x4 ADD PUSH1 0x0 DUP3 DUP3 SLOAD PUSH2 0xB07 SWAP2 SWAP1 PUSH2 0xFC5 JUMP JUMPDEST SWAP1 SWAP2 SSTORE POP POP PUSH1 0x40 MLOAD PUSH4 0xA9059CBB PUSH1 0xE0 SHL DUP2 MSTORE CALLER PUSH1 0x4 DUP3 ADD MSTORE PUSH1 0x24 DUP2 ADD DUP3 SWAP1 MSTORE PUSH32 0x0 PUSH1 0x1 PUSH1 0x1 PUSH1 0xA0 SHL SUB AND SWAP1 PUSH4 0xA9059CBB SWAP1 PUSH1 0x44 ADD PUSH1 0x20 PUSH1 0x40 MLOAD DUP1 DUP4 SUB DUP2 PUSH1 0x0 DUP8 GAS CALL ISZERO DUP1 ISZERO PUSH2 0xB79 JUMPI RETURNDATASIZE PUSH1 0x0 DUP1 RETURNDATACOPY RETURNDATASIZE PUSH1 0x0 REVERT JUMPDEST POP POP POP POP PUSH1 0x40 MLOAD RETURNDATASIZE PUSH1 0x1F NOT PUSH1 0x1F DUP3 ADD AND DUP3 ADD DUP1 PUSH1 0x40 MSTORE POP DUP2 ADD SWAP1 PUSH2 0xB9D SWAP2 SWAP1 PUSH2 0xF4B JUMP JUMPDEST PUSH2 0xBB9 JUMPI PUSH1 0x40 MLOAD PUSH3 0x461BCD PUSH1 0xE5 SHL DUP2 MSTORE PUSH1 0x4 ADD PUSH2 0x313 SWAP1 PUSH2 0xF6D JUMP JUMPDEST PUSH1 0x40 MLOAD DUP2 DUP2 MSTORE CALLER SWAP1 PUSH32 0x896E034966EAAF1ADC54ACC0F257056FEBBD300C9E47182CF761982CF1F5E430 SWAP1 PUSH1 0x20 ADD PUSH1 0x40 MLOAD DUP1 SWAP2 SUB SWAP1 LOG2 POP POP POP PUSH2 0x8D2 PUSH1 0x1 DUP1 SSTORE JUMP JUMPDEST PUSH2 0xC02 PUSH2 0xD37 JUMP JUMPDEST PUSH1 0x1 PUSH1 0x1 PUSH1 0xA0 SHL SUB DUP2 AND PUSH2 0xC2C JUMPI PUSH1 0x40 MLOAD PUSH4 0x1E4FBDF7 PUSH1 0xE0 SHL DUP2 MSTORE PUSH1 0x0 PUSH1 0x4 DUP3 ADD MSTORE PUSH1 0x24 ADD PUSH2 0x313 JUMP JUMPDEST PUSH2 0xC35 DUP2 PUSH2 0xDE4 JUMP JUMPDEST POP JUMP JUMPDEST PUSH1 0x1 PUSH1 0x1 PUSH1 0xA0 SHL SUB DUP2 AND PUSH1 0x0 SWAP1 DUP2 MSTORE PUSH1 0x2 PUSH1 0x20 DUP2 DUP2 MSTORE PUSH1 0x40 DUP1 DUP5 KECCAK256 DUP2 MLOAD PUSH1 0xC0 DUP2 ADD DUP4 MSTORE DUP2 SLOAD DUP1 DUP3 MSTORE PUSH1 0x1 DUP4 ADD SLOAD SWAP5 DUP3 ADD SWAP5 SWAP1 SWAP5 MSTORE SWAP4 DUP2 ADD SLOAD SWAP2 DUP5 ADD SWAP2 SWAP1 SWAP2 MSTORE PUSH1 0x3 DUP2 ADD SLOAD PUSH1 0x60 DUP5 ADD MSTORE PUSH1 0x4 DUP2 ADD SLOAD PUSH1 0x80 DUP5 ADD MSTORE PUSH1 0x5 ADD SLOAD PUSH1 0xFF AND ISZERO ISZERO PUSH1 0xA0 DUP4 ADD MSTORE ISZERO DUP1 PUSH2 0xCA6 JUMPI POP DUP1 PUSH1 0xA0 ADD MLOAD JUMPDEST ISZERO PUSH2 0xCB4 JUMPI POP PUSH1 0x0 SWAP3 SWAP2 POP POP JUMP JUMPDEST DUP1 PUSH1 0x40 ADD MLOAD DUP2 PUSH1 0x20 ADD MLOAD PUSH2 0xCC8 SWAP2 SWAP1 PUSH2 0xFC5 JUMP JUMPDEST TIMESTAMP LT ISZERO PUSH2 0xCD8 JUMPI POP PUSH1 0x0 SWAP3 SWAP2 POP POP JUMP JUMPDEST DUP1 PUSH1 0x60 ADD MLOAD DUP2 PUSH1 0x20 ADD MLOAD PUSH2 0xCEC SWAP2 SWAP1 PUSH2 0xFC5 JUMP JUMPDEST TIMESTAMP LT PUSH2 0xCF9 JUMPI MLOAD SWAP3 SWAP2 POP POP JUMP JUMPDEST PUSH1 0x0 DUP2 PUSH1 0x20 ADD MLOAD TIMESTAMP PUSH2 0xD0B SWAP2 SWAP1 PUSH2 0xFAC JUMP JUMPDEST SWAP1 POP PUSH1 0x0 DUP3 PUSH1 0x60 ADD MLOAD DUP3 DUP5 PUSH1 0x0 ADD MLOAD PUSH2 0xD24 SWAP2 SWAP1 PUSH2 0xFD8 JUMP JUMPDEST PUSH2 0xD2E SWAP2 SWAP1 PUSH2 0xFEF JUMP JUMPDEST SWAP6 SWAP5 POP POP POP POP POP JUMP JUMPDEST PUSH1 0x0 SLOAD PUSH1 0x1 PUSH1 0x1 PUSH1 0xA0 SHL SUB AND CALLER EQ PUSH2 0x8D2 JUMPI PUSH1 0x40 MLOAD PUSH4 0x118CDAA7 PUSH1 0xE0 SHL DUP2 MSTORE CALLER PUSH1 0x4 DUP3 ADD MSTORE PUSH1 0x24 ADD PUSH2 0x313 JUMP JUMPDEST PUSH1 0x0 SLOAD PUSH1 0x1 PUSH1 0xA0 SHL SWAP1 DIV PUSH1 0xFF AND ISZERO PUSH2 0x8D2 JUMPI PUSH1 0x40 MLOAD PUSH4 0xD93C0665 PUSH1 0xE0 SHL DUP2 MSTORE PUSH1 0x4 ADD PUSH1 0x40 MLOAD DUP1 SWAP2 SUB SWAP1 REVERT JUMPDEST PUSH2 0xD97 PUSH2 0xEA1 JUMP JUMPDEST PUSH1 0x0 DUP1 SLOAD PUSH1 0xFF PUSH1 0xA0 SHL NOT AND SWAP1 SSTORE PUSH32 0x5DB9EE0A495BF2E6FF9C91A7834C1BA4FDD244A5E8AA4E537BD38AEAE4B073AA CALLER JUMPDEST PUSH1 0x40 MLOAD PUSH1 0x1 PUSH1 0x1 PUSH1 0xA0 SHL SUB SWAP1 SWAP2 AND DUP2 MSTORE PUSH1 0x20 ADD PUSH1 0x40 MLOAD DUP1 SWAP2 SUB SWAP1 LOG1 JUMP JUMPDEST PUSH1 0x0 DUP1 SLOAD PUSH1 0x1 PUSH1 0x1 PUSH1 0xA0 SHL SUB DUP4 DUP2 AND PUSH1 0x1 PUSH1 0x1 PUSH1 0xA0 SHL SUB NOT DUP4 AND DUP2 OR DUP5 SSTORE PUSH1 0x40 MLOAD SWAP2 SWAP1 SWAP3 AND SWAP3 DUP4 SWAP2 PUSH32 0x8BE0079C531659141344CD1FD0A4F28419497F9722A3DAAFE3B4186F6B6457E0 SWAP2 SWAP1 LOG3 POP POP JUMP JUMPDEST PUSH2 0xE3C PUSH2 0xD64 JUMP JUMPDEST PUSH1 0x0 DUP1 SLOAD PUSH1 0xFF PUSH1 0xA0 SHL NOT AND PUSH1 0x1 PUSH1 0xA0 SHL OR SWAP1 SSTORE PUSH32 0x62E78CEA01BEE320CD4E420270B5EA74000D11B0C9F74754EBDBFC544B05A258 PUSH2 0xDC7 CALLER SWAP1 JUMP JUMPDEST PUSH1 0x2 PUSH1 0x1 SLOAD SUB PUSH2 0xE9A JUMPI PUSH1 0x40 MLOAD PUSH4 0x3EE5AEB5 PUSH1 0xE0 SHL DUP2 MSTORE PUSH1 0x4 ADD PUSH1 0x40 MLOAD DUP1 SWAP2 SUB SWAP1 REVERT JUMPDEST PUSH1 0x2 PUSH1 0x1 SSTORE JUMP JUMPDEST PUSH1 0x0 SLOAD PUSH1 0x1 PUSH1 0xA0 SHL SWAP1 DIV PUSH1 0xFF AND PUSH2 0x8D2 JUMPI PUSH1 0x40 MLOAD PUSH4 0x8DFC202B PUSH1 0xE0 SHL DUP2 MSTORE PUSH1 0x4 ADD PUSH1 0x40 MLOAD DUP1 SWAP2 SUB SWAP1 REVERT JUMPDEST DUP1 CALLDATALOAD PUSH1 0x1 PUSH1 0x1 PUSH1 0xA0 SHL SUB DUP2 AND DUP2 EQ PUSH2 0xEE2 JUMPI PUSH1 0x0 DUP1 REVERT JUMPDEST SWAP2 SWAP1 POP JUMP JUMPDEST PUSH1 0x0 DUP1 PUSH1 0x0 DUP1 PUSH1 0x0 PUSH1 0xA0 DUP7 DUP9 SUB SLT ISZERO PUSH2 0xEFF JUMPI PUSH1 0x0 DUP1 REVERT JUMPDEST PUSH2 0xF08 DUP7 PUSH2 0xECB JUMP JUMPDEST SWAP8 PUSH1 0x20 DUP8 ADD CALLDATALOAD SWAP8 POP PUSH1 0x40 DUP8 ADD CALLDATALOAD SWAP7 PUSH1 0x60 DUP2 ADD CALLDATALOAD SWAP7 POP PUSH1 0x80 ADD CALLDATALOAD SWAP5 POP SWAP3 POP POP POP JUMP JUMPDEST PUSH1 0x0 PUSH1 0x20 DUP3 DUP5 SUB SLT ISZERO PUSH2 0xF3B JUMPI PUSH1 0x0 DUP1 REVERT JUMPDEST PUSH2 0xF44 DUP3 PUSH2 0xECB JUMP JUMPDEST SWAP4 SWAP3 POP POP POP JUMP JUMPDEST PUSH1 0x0 PUSH1 0x20 DUP3 DUP5 SUB SLT ISZERO PUSH2 0xF5D JUMPI PUSH1 0x0 DUP1 REVERT JUMPDEST DUP2 MLOAD DUP1 ISZERO ISZERO DUP2 EQ PUSH2 0xF44 JUMPI PUSH1 0x0 DUP1 REVERT JUMPDEST PUSH1 0x20 DUP1 DUP3 MSTORE PUSH1 0xF SWAP1 DUP3 ADD MSTORE PUSH15 0x151C985B9CD9995C8819985A5B1959 PUSH1 0x8A SHL PUSH1 0x40 DUP3 ADD MSTORE PUSH1 0x60 ADD SWAP1 JUMP JUMPDEST PUSH4 0x4E487B71 PUSH1 0xE0 SHL PUSH1 0x0 MSTORE PUSH1 0x11 PUSH1 0x4 MSTORE PUSH1 0x24 PUSH1 0x0 REVERT JUMPDEST DUP2 DUP2 SUB DUP2 DUP2 GT ISZERO PUSH2 0xFBF JUMPI PUSH2 0xFBF PUSH2 0xF96 JUMP JUMPDEST SWAP3 SWAP2 POP POP JUMP JUMPDEST DUP1 DUP3 ADD DUP1 DUP3 GT ISZERO PUSH2 0xFBF JUMPI PUSH2 0xFBF PUSH2 0xF96 JUMP JUMPDEST DUP1 DUP3 MUL DUP2 ISZERO DUP3 DUP3 DIV DUP5 EQ OR PUSH2 0xFBF JUMPI PUSH2 0xFBF PUSH2 0xF96 JUMP JUMPDEST PUSH1 0x0 DUP3 PUSH2 0x100C JUMPI PUSH4 0x4E487B71 PUSH1 0xE0 SHL PUSH1 0x0 MSTORE PUSH1 0x12 PUSH1 0x4 MSTORE PUSH1 0x24 PUSH1 0x0 REVERT JUMPDEST POP DIV SWAP1 JUMP INVALID LOG2 PUSH5 0x6970667358 0x22 SLT KECCAK256 SLT SWAP13 0xDB DUP11 0xBF 0xD9 0xF7 0x4A SWAP13 0xFB 0xC8 GT GT TIMESTAMP PUSH18 0xC90D948BDD7F871A0A0A159DCAD12DEA2E64 PUSH20 0x6F6C634300081400330000000000000000000000 "
        },
        "methodIdentifiers": {
          "addToWhitelist(address)": "e43252d7",
          "calculateVestedAmount(address)": "ffa06b2a",
          "claimVestedTokens()": "e74f3fbb",
          "createVestingSchedule(address,uint256,uint256,uint256,uint256)": "1bf0b08b",
          "owner()": "8da5cb5b",
          "pause()": "8456cb59",
          "paused()": "5c975abb",
          "removeFromWhitelist(address)": "8ab1d681",
          "renounceOwnership()": "715018a6",
          "revokeVesting(address)": "3b0da260",
          "token()": "fc0c546a",
          "transferOwnership(address)": "f2fde38b",
          "unpause()": "3f4ba83a",
          "vestingSchedules(address)": "fdb20ccb",
          "whitelist(address)": "9b19251a"
        }
      }
    }
  }
}